:04030000F1EF17F012
:1010000000010000000A00000064000000E8030086
:101010000010270000A086010040420F0080969833
:101020000000E1F50500CA9A3B00803FCDCC3DD7DA
:10103000233C12833AB7D138C62737388635C0D615
:1010400033CC2B32708930E7DB2EE53C1E42A20DFB
:1010500000803F00204100C842007A44401C4650B6
:10106000C34724744997184BBCBE4C6B6E4E031596
:101070005079AD60F34971202020202020202020CD
:101080002020202020202020202020202020202060
:101090002020202020200054686973206973206478
:1010A0006F6E65206279206E6F6F7220616E6420B2
:1010B0006F6D61720044697374616E63652069735A
:0D10C000203A2000202025362E3266000048
:1010CE004D0E596E000E5A6E8CEF0CF0250E6E18EA
:1010DE00D8B408D049C0D9FF4AC0DAFF6EC0DFFFCE
:1010EE008AEF0CF0000E626E000E616E000E606EE6
:1010FE00000E5F6E4BC0F6FF4CC0F7FF0800F550B8
:10110E0061EC18F0D8A032D0000E626E000E616E47
:10111E0061C00FF062C010F0000E126E0A0E116E5A
:10112E0006EC18F00FC061F010C062F0D00E506ED9
:10113E00FF0E516E4BC0F6FF4CC0F7FF0800F55086
:10114E00526E536A505052265150532252506126BD
:10115E00535062224B4A4C2A4BC0F6FF4CC0F7FF4D
:10116E000800F55061EC18F0D8B0D2D74BC0F6FF9E
:10117E004CC0F7FF0800F5502E0AD8A42ED0608C74
:10118E004B4A4C2A000E6D6E000E6C6E1BD06CC05E
:10119E000FF06DC010F0000E126E0A0E116E06ECFE
:1011AE0018F04BC0F6FF4CC0F7FF0800F5500F26A5
:1011BE00000E1022D00E0F246C6EFF0E10206D6EDE
:1011CE004B4A4C2A4BC0F6FF4CC0F7FF0800F550B7
:1011DE0061EC18F0D8A009D0DAD7000E6D6E000EB3
:1011EE006C6E608802D0608411D04BC0F6FF4CC08C
:1011FE00F7FF4B4A4C2A0800F5CF6EF06E50000AEE
:10120E00D8B490D3660AD8B4EED77FD3070E601445
:10121E00D8B4F0D260A804D0000E6D6E060E6C6EBF
:10122E0059C0D9FF5AC0DAFFDECF69F0DECF6AF0BF
:10123E00DDCF6BF0030E5926000E5A226BAE10D086
:10124E0069C001F06AC002F06BC003F02CEC18F01C
:10125E0001C069F002C06AF003C06BF0030E5F12AA
:10126E00000E686E000E676E69506A106B10D8B46F
:10127E0083D0820E506EFF0E516E69C052F06AC05E
:10128E0053F06BC054F06CC055F0100E05D0D890D2
:10129E005532543253325232E82EF9D7525050242E
:1012AE00676E000E5120686E6706D8A0680667C08C
:1012BE000FF068C010F0000E126E030E116E06ECE9
:1012CE0018F00FC067F010C068F067C007F068C074
:1012DE0008F0000E0A6E0A0E096EBFEC15F007C07C
:1012EE0067F008C068F068AE03D06706D8A068063D
:1012FE0067500008A0EC0CF024C063F025C064F029
:10130E0026C065F063C015F064C016F065C017F016
:10131E0069C018F06AC019F06BC01AF09BEC13F09C
:10132E0015C063F016C064F017C065F063C001F01D
:10133E0064C002F065C003F0000E046E800E056EF0
:10134E003F0E066E77EC15F0D8B004D06706D8A025
:10135E00680612D063C001F064C002F065C003F0ED
:10136E00000E046E200E056E410E066E77EC15F023
:10137E00D8A002D0674A682A6DBE06D06D501BE118
:10138E000D0E6C5CD8B017D069C02EF06AC02FF06D
:10139E006BC030F06C50FBEC0FF024C031F025C068
:1013AE0032F026C033F01EEC11F02EC069F02FC0C3
:1013BE006AF030C06BF068BE06D068501EE10A0EAF
:1013CE00675CD8B01AD069506A106B10D8B451D07F
:1013DE0069C03AF06AC03BF06BC03CF021EC13F0F0
:1013EE003A503B103C103D10D8B468BE42D0685005
:1013FE0004E1020E675CD8A03CD063C001F064C06B
:10140E0002F065C003F0700E046E890E056E400E7C
:10141E00066E77EC15F0D8B002D0F70E01D0F80EAC
:10142E006726FF0E68226750A0EC0CF024C063F014
:10143E0025C064F026C065F069C001F06AC002F0F4
:10144E006BC003F063C004F064C005F065C006F025
:10145E00F4EC11F001C05BF002C05CF003C05DF073
:10146E0004C05EF0000E696E000E6A6E000E6B6EAA
:10147E0032D069C03AF06AC03BF06BC03CF021EC50
:10148E0013F03AC05BF03BC05CF03CC05DF03DC079
:10149E005EF069C03AF06AC03BF06BC03CF05BC0D6
:1014AE0009F05CC00AF05DC00BF05EC00CF0ADEC54
:1014BE0016F009C03DF00AC03EF00BC03FF059ECEB
:1014CE0017F03AC069F03BC06AF03CC06BF0000EFA
:1014DE00686E000E676E010E6E6E0A0E6E18D8B430
:1014EE0018D06E50040D010EF324F66E100EF4207B
:1014FE00F76E0900F5505B5C0900F5505C58090069
:10150E00F5505D580900F5505E58D8A002D06E2AED
:10151E00E4D76EC050F0516A50BE51066C50502642
:10152E006D50512267505026685051225050615EC6
:10153E005150625A6C506D10D8B403D06106D8A0C9
:10154E006206030E5F14506E000E6014516E505002
:10155E005110D8B40CD008D049C0D9FF4AC0DAFF18
:10156E00200EDF6E494A4A2A6106D8A0620662BE84
:10157E0005D06250F1E16104D8B0EED7030E5F14CE
:10158E00506E000E6014516E50505110D8B451D0A0
:10159E0049C0D9FF4AC0DAFF2D0E49D0494A4A2A1E
:1015AE0048D05BC001F05CC002F05DC003F05EC0CD
:1015BE0004F06E50040D010EF324F66E100EF4209E
:1015CE00F76E0900F5CF05F00900F5CF06F009001A
:1015DE00F5CF07F00A00F5CF08F001EC16F001C0C8
:1015EE0063F002C064F003C065F004C066F063C02F
:1015FE0001F064C002F065C003F066C004F00A0E8C
:10160E00056E000E066E000E076E000E086E7AEC6A
:10161E0016F001C063F002C064F003C065F004C0B0
:10162E0066F06350300F49C0D9FF4AC0DAFFDF6E53
:10163E00B5D76E066E28D8B40CD0B3D749C0D9FF33
:10164E004AC0DAFF300EDF6E494A4A2A6706D8A032
:10165E00680668BE05D06850F1E16704D8B0EED7D1
:10166E006DBE09D06D5004E1090E6C5CD8A003D09C
:10167E00080E6E6E02D06CC06EF06E506C5E000E78
:10168E006EBEFF0E6D5A6E50D8B408D049C0D9FF49
:10169E004AC0DAFF2E0EDF6E494A4A2A6E50A0EC7F
:1016AE000CF024C056F025C057F026C058F069C083
:1016BE0018F06AC019F06BC01AF056C015F057C07A
:1016CE0016F058C017F09BEC13F015C03AF016C088
:1016DE003BF017C03CF021EC13F03AC05BF03BC07E
:1016EE005CF03CC05DF03DC05EF06FD05BC001F0C1
:1016FE005CC002F05DC003F05EC004F06E50040DDD
:10170E00010EF324F66E100EF420F76E0900F5CFDD
:10171E0005F00900F5CF06F00900F5CF07F00A0035
:10172E00F5CF08F001EC16F001C063F002C064F0D2
:10173E0003C065F004C066F063C001F064C002F03F
:10174E0065C003F066C004F00A0E056E000E066E4C
:10175E00000E076E000E086E7AEC16F001C063F0F4
:10176E0002C064F003C065F004C066F06350300F31
:10177E0049C0D9FF4AC0DAFFDF6E494A4A2A5BC028
:10178E0001F05CC002F05DC003F05EC004F06E506C
:10179E00040D010EF324F66E100EF420F76E090000
:1017AE00F5CF05F00900F5CF06F00900F5CF07F0EB
:1017BE000A00F5CF08F07AEC16F001C05BF002C01B
:1017CE005CF003C05DF004C05EF06E066E28D8B407
:1017DE000CD08CD749C0D9FF4AC0DAFF300EDF6E6D
:1017EE00494A4A2A6C06D8A06D066C506D10D8B4C2
:1017FE008CD0F0D76C506D10D8A408D05B505C1014
:10180E005D105E10D8A402D06C4A6D2A800E6EBE9A
:10181E007F0E506E6C506E5C6D50800A5058D8B072
:10182E0003D06CC06EF010D06D50800A506E6E50AA
:10183E006C5C800E6EBE7F0E5058D8B005D06E50C8
:10184E006C6E6D6A6CBE6D0661506210D8B40DD0B0
:10185E00030E5F14506E000E6014516E50505110F6
:10186E00D8B403D06106D8A0620660AC13D0615024
:10187E006C5C6D50800A506E6250800A5058D8B021
:10188E0005D06C50615E6D50625A04D0000E626ECF
:10189E00000E616E800E6EBE7F0E506E61506E5CDD
:1018AE006250800A5058D8B007D06E50615E000E5C
:1018BE006EBEFF0E625A04D0000E626E000E616E96
:1018CE0061506210D8B40FD049C0D9FF4AC0DAFFB8
:1018DE00200EDF6E494A4A2A6106D8A06206615080
:1018EE006210D8A4F1D7030E5F14506E000E601470
:1018FE00516E50505110D8B408D049C0D9FF4AC0CB
:10190E00DAFF2D0EDF6E494A4A2A4BC0F6FF4CC055
:10191E00F7FF4B4A4C2A0800F5CF6EF06E50D8A454
:10192E006DEF08F049C0D9FF4AC0DAFF000EDF6E36
:10193E0012002A6E2AAEFBD02A6C2A50800A120F91
:10194E00D8A091D0000E126E030E116E000E0A6E0C
:10195E000A0E096E000E046E640E036E2A50016E9E
:10196E00026A01BE020642EC16F001C007F002C088
:10197E0008F0BFEC15F0090E07240F6E000E0820BC
:10198E00106E06EC18F0290E0F24F66E100E1020B5
:10199E00F76E0900F5CF18F00900F5CF19F00A001F
:1019AE00F5CF1AF0000E0A6E640E096E2A50076EFD
:1019BE00086A07BE0806BFEC15F0120E07240F6E5C
:1019CE00000E0820106E000E126E030E116E06EC45
:1019DE0018F0290E0F24F66E100E1020F76E090067
:1019EE00F5CF15F00900F5CF16F00A00F5CF17F078
:1019FE009BEC13F015C027F016C028F017C029F085
:101A0E0027C015F028C016F029C017F0000E126E70
:101A1E00030E116E000E046E0A0E036E2A50016E36
:101A2E00026A01BE020642EC16F001C00FF002C0BF
:101A3E0010F006EC18F0290E0F24F66E100E102082
:101A4E00F76E0900F5CF18F00900F5CF19F00A006E
:101A5E00F5CF1AF09BEC13F015C024F016C025F04C
:101A6E0017C026F012002A50800A750FD8A04DD04C
:101A7E00000E0A6E0A0E096E2A50076E086A07BE1D
:101A8E000806BFEC15F0090E07240F6E000E082095
:101A9E00106E000E126E030E116E06EC18F0290E6B
:101AAE000F24F66E100E1020F76E0900F5CF15F00C
:101ABE000900F5CF16F00A00F5CF17F0000E126EE2
:101ACE00030E116E000E046E0A0E036E2A50016E86
:101ADE00026A01BE020642EC16F001C00FF002C00F
:101AEE0010F006EC18F0290E0F24F66E100E1020D2
:101AFE00F76E0900F5CF18F00900F5CF19F00A00BE
:101B0E00F5CF1AF09BEC13F0A7D72A50030D290E30
:101B1E00F324F66E100EF420F76E0900F5CF24F0C4
:101B2E000900F5CF25F00A00F5CF26F012002A5055
:101B3E00800A120FD8A091D0000E126E030E116EF5
:101B4E00000E0A6E0A0E096E000E046E640E036E0F
:101B5E002A50016E026A01BE020642EC16F001C066
:101B6E0007F002C008F0BFEC15F0090E07240F6E47
:101B7E00000E0820106E06EC18F0500E0F24F66EB4
:101B8E00100E1020F76E0900F5CF18F00900F5CFF2
:101B9E0019F00A00F5CF1AF0000E0A6E640E096EE7
:101BAE002A50076E086A07BE0806BFEC15F0120E23
:101BBE0007240F6E000E0820106E000E126E030E1C
:101BCE00116E06EC18F0500E0F24F66E100E10204B
:101BDE00F76E0900F5CF15F00900F5CF16F00A00E3
:101BEE00F5CF17F09BEC13F015C027F016C028F0B8
:101BFE0017C029F027C015F028C016F029C017F01D
:101C0E00000E126E030E116E000E046E0A0E036E9F
:101C1E002A50016E026A01BE020642EC16F001C0A5
:101C2E000FF002C010F006EC18F0500E0F24F66EF6
:101C3E00100E1020F76E0900F5CF18F00900F5CF41
:101C4E0019F00A00F5CF1AF09BEC13F015C024F032
:101C5E0016C025F017C026F012002A50800A750F04
:101C6E00D8A04DD0000E0A6E0A0E096E2A50076ECD
:101C7E00086A07BE0806BFEC15F0090E07240F6EA2
:101C8E00000E0820106E000E126E030E116E06EC82
:101C9E0018F0500E0F24F66E100E1020F76E09007D
:101CAE00F5CF15F00900F5CF16F00A00F5CF17F0B5
:101CBE00000E126E030E116E000E046E0A0E036EEF
:101CCE002A50016E026A01BE020642EC16F001C0F5
:101CDE000FF002C010F006EC18F0500E0F24F66E46
:101CEE00100E1020F76E0900F5CF18F00900F5CF91
:101CFE0019F00A00F5CF1AF09BEC13F0A7D72A5073
:101D0E00030D500EF324F66E100EF420F76E09003C
:101D1E00F5CF24F00900F5CF25F00A00F5CF26F017
:101D2E00120070EC18F07FEC18F0970E0F6E100E7C
:101D3E00106E06EC17F00400100E79EC17F0010E81
:101D4E000B6E010E50EC18F0000E0001A46F000E89
:101D5E00A36F770E0F6E100E106E06EC17F0800E3E
:101D6E00496E000E4A6EB50E4B6E100E4C6E67EC41
:101D7E0008F0800E0F6E000E106E06EC17F00400C9
:101D8E00300ECD6E000ECF6E000ECE6E8390050E11
:101D9E0079EC17F083800A0E79EC17F0839081A00E
:101DAE00FED7CD8081B0FED7CD90CE50CFCF6FF085
:101DBE00706A6FC070F06F6A6F100001A36F705081
:101DCE000001A46F240E276E740E286E490E296E24
:101DDE00A3C06FF0A4C070F0D8906F367036D89054
:101DEE006F367036D8906F3670366FC009F070C08F
:101DFE000AF03EEC18F009C024F00AC025F00BC022
:101E0E0026F015EC14F024C0A0F025C0A1F026C0D9
:101E1E00A2F0A0C024F0A1C025F0A2C026F0480E6A
:101E2E00276E6B0E286E420E296E15EC14F024C030
:101E3E00A5F025C0A6F026C0A7F0800E496E000EB4
:101E4E004A6EC40E4B6E100E4C6EA5C04DF0A6C061
:101E5E004EF0A7C04FF067EC08F0020E0B6E010EAD
:101E6E0050EC18F0800E0F6E000E106E06EC17F090
:101E7E00A5C001F0A6C002F0A7C003F0000E046ECC
:101E8E00960E056E430E066E77EC15F0D8A012D0A6
:101E9E00000E496E800E4A6E400E4B6E2BEC15F006
:101EAE00000E496E000E4A6E3F0E4B6EDFEC14F0C4
:101EBE0080EF01F0A5C001F0A6C002F0A7C003F0AC
:101ECE00000E046E480E056E430E066E77EC15F08E
:101EDE00D8A012D0000E496E800E4A6E400E4B6E88
:101EEE002BEC15F0000E496EC00E4A6E3F0E4B6E77
:101EFE00DFEC14F080EF01F0A5C001F0A6C002F0F7
:101F0E00A7C003F0000E046EC80E056E420E066EDC
:101F1E0077EC15F0D8A012D0000E496E200E4A6E46
:101F2E00400E4B6E2BEC15F0000E496E400E4A6EB5
:101F3E00400E4B6EDFEC14F080EF01F0A5C001F007
:101F4E00A6C002F0A7C003F0000E046E960E056E3A
:101F5E00420E066E77EC15F0D8A012D0000E496E28
:101F6E00000E4A6E3F0E4B6E2BEC15F0000E496EB6
:101F7E00400E4A6E400E4B6EDFEC14F080EF01F017
:101F8E00A5C001F0A6C002F0A7C003F0000E046EBB
:101F9E00480E056E420E066E77EC15F0D8A012D0E4
:101FAE00000E496E000E4A6E3F0E4B6E2BEC15F076
:101FBE00000E496E800E4A6E400E4B6EDFEC14F032
:101FCE0080EF01F0CD0E496E4C0E4A6E3D0E4B6EFB
:101FDE002BEC15F09A0E496E990E4A6E400E4B6E12
:101FEE00DFEC14F080EF01F02D6E6D0E2D649FD09E
:101FFE00000E126E030E116E000E0A6E0A0E096EA0
:10200E00000E046E640E036E2DC001F0026A42ECE7
:10201E0016F001C007F002C008F0BFEC15F0090E73
:10202E0007240F6E000E0820106E06EC18F0290E15
:10203E000F24F66E100E1020F76E0900F5CF18F073
:10204E000900F5CF19F00A00F5CF1AF0000E0A6E4E
:10205E00640E096E2DC007F0086ABFEC15F0120E63
:10206E0007240F6E000E0820106E000E126E030E67
:10207E00116E06EC18F0290E0F24F66E100E1020BD
:10208E00F76E0900F5CF15F00900F5CF16F00A002E
:10209E00F5CF17F09BEC13F015C02AF016C02BF0FD
:1020AE0017C02CF0000E126E030E116E000E046E91
:1020BE000A0E036E2DC001F0026A42EC16F001C04A
:1020CE000FF002C010F006EC18F0290E0F24F66E79
:1020DE00100E1020F76E0900F5CF18F00900F5CF9D
:1020EE0019F00A00F5CF1AF02AC015F02BC016F021
:1020FE002CC017F09BEC13F015C027F016C028F07B
:10210E0017C029F027C015F028C016F029C017F007
:10211E00000E186E000E196E3F0E1A6E9BEC13F029
:10212E0015C024F016C025F017C026F012000A0EB6
:10213E002D645DD0000E126E030E116E000E046E35
:10214E000A0E036E2DC001F0026A42EC16F001C0B9
:10215E000FF002C010F006EC18F0290E0F24F66EE8
:10216E00100E1020F76E0900F5CF18F00900F5CF0C
:10217E0019F00A00F5CF1AF0000E0A6E0A0E096E5B
:10218E002DC007F0086ABFEC15F0090E07240F6E7C
:10219E00000E0820106E000E126E030E116E06EC6D
:1021AE0018F0290E0F24F66E100E1020F76E09008F
:1021BE00F5CF15F00900F5CF16F00A00F5CF17F0A0
:1021CE009BEC13F015C02AF016C02BF017C02CF0A4
:1021DE002AC015F02BC016F02CC017F0000E186E8A
:1021EE00000E196E3F0E1A6E9BEC13F099D72D5000
:1021FE00030D290EF324F66E100EF420F76E09006F
:10220E00F5CF15F00900F5CF16F00A00F5CF17F04F
:10221E00000E186E000E196E3F0E1A6E9BEC13F028
:10222E0015C024F016C025F017C026F0120030C0DD
:10223E0034F0356A366A2F34343601E33580345043
:10224E00396E33C034F0356A366A3234343601E3CF
:10225E0035803450386E3950D8B40BD03850395C84
:10226E00D8B00ED0395000083824346E180E3464AD
:10227E0007D031C02EF032C02FF033C030F0120034
:10228E003850D8B40BD03950385CD8B00ED0385046
:10229E0000083924346E180E346407D02EC02EF088
:1022AE002FC02FF030C030F01200060E376E30BE49
:1022BE00378E33BE378C2F8EFF0E2E16FF0E2F1637
:1022CE00000E3016328EFF0E3116FF0E3216000E35
:1022DE0033163850395CD8B01BD0D89031363236E0
:1022EE003336380639503818D8B40DD0370637C0C3
:1022FE0034F0070E3416D8B406D0EFD7D89030325B
:10230E002F322E32392A38503918D8B41FD0F6D77A
:10231E003950385CD8B01AD0D8902E362F36303689
:10232E00390639503818D8B40DD0370637C034F0C6
:10233E00070E3416D8B406D0EFD7D89033323232D7
:10234E003132382A38503918D8A4F7D737AE0CD0D6
:10235E00FF0E2E1AFF0E2F1AFF0E301A010E2E260A
:10236E00000E2F22000E302237AC0CD0FF0E311A89
:10237E00FF0E321AFF0E331A010E3126000E3222D4
:10238E00000E3322000E376E2E5031262F50322281
:10239E003050332233AE0ED0FF0E311AFF0E321AEA
:1023AE00FF0E331A010E3126000E3222000E33229A
:1023BE00010E376E31C001F032C002F033C003F0AF
:1023CE0039C004F037C005F088EC14F001C02EF0CF
:1023DE0002C02FF003C030F0120003C007F0086AED
:1023EE00096A0234073601E3088007500F6E0F505A
:1023FE00D8A409D0000E016E000E026E000E036E00
:10240E00000E046E120006C007F0086A096A053451
:10241E00073601E3088007500E6E0E50D8A409D07F
:10242E00000E016E000E026E000E036E000E046EA4
:10243E001200028EFF0E0116FF0E0216000E03167C
:10244E00058EFF0E0416FF0E0516000E0616000E64
:10245E000A6E000E0B6E000E0C6E000E0D6E7F0ED1
:10246E000F5E0E50980F0F5E180E0E6ED8900A3635
:10247E000B360C360D360450015C055002580650D2
:10248E000358D8A007D00450015E0550025A0650DA
:10249E00035A0A80D8900136023603360E2EE6D73E
:1024AE000FAE16D00F50800A970FD8B009D0000E7D
:1024BE00016E000E026E000E036E000E046E120010
:1024CE00D8900D320C320B320A320F3EF9D715D09E
:1024DE00170E0F640FD0000E016E000E026E000E6E
:1024EE00036E000E046E1200D8900A360B360C36B0
:1024FE000D360F060F50D8A4F7D70AC001F00BC047
:10250E0002F00CC003F00DC004F0120003340434CA
:10251E000C6E0C50D8A409D0000E016E000E026E87
:10252E00000E036E000E046E1200063407340B6E9E
:10253E000B50D8A409D0000E016E000E026E000ED4
:10254E00036E000E046E1200038EFF0E0116FF0EB8
:10255E000216FF0E0316000E0416068EFF0E04164C
:10256E00FF0E0516FF0E0616000E0716000E076E5E
:10257E00000E086E000E096E000E0A6E7F0E0C5EC7
:10258E000B50A00F0C5E200E0B6ED890073608363F
:10259E0009360A360450015C05500258065003589D
:1025AE0007500458D8A009D00450015E0550025AB5
:1025BE000650035A0750045A0780D8900136023647
:1025CE00033604360B2EE1D70CAE16D00C50800A13
:1025DE009F0FD8B009D0000E016E000E026E000ED5
:1025EE00036E000E046E1200D8900A3209320832C1
:1025FE0007320C3EF9D715D01F0E0C640FD0000E0B
:10260E00016E000E026E000E036E000E046E1200BE
:10261E00D8900736083609360A360C060C50D8A460
:10262E00F7D707C001F008C002F009C003F00AC0D6
:10263E0004F012003CC03EF03F6A406A3B343E3626
:10264E0001E33F803E50486E4850D8A409D0000E9A
:10265E003A6E000E3B6E000E3C6E000E3D6E12008A
:10266E00170E3E6E3AC03FF03BC040F03CC041F00A
:10267E003E28426E04D0D890413240323F32422E34
:10268E00FAD73F50436E3B8EFF0E3A16FF0E3B16A7
:10269E00000E3C163A50446E3B50456E3C50466E12
:1026AE00476A8E0E485E48AE16D04850800A8F0F8D
:1026BE00D8B009D0000E3A6E000E3B6E000E3C6E86
:1026CE00000E3D6E1200D8904732463245324432EB
:1026DE00483EF9D715D0170E48640FD0000E3A6E4B
:1026EE00000E3B6E000E3C6E000E3D6E1200D8903A
:1026FE00443645364636473648064850D8A4F7D7AE
:10270E004350D8B408D0471E461E451E446C000EDA
:10271E0045224622472244C03AF045C03BF046C00F
:10272E003CF047C03DF0120017C01BF01C6A1D6A3A
:10273E0016341B3601E31C801B501E6E1E50D8A48F
:10274E0007D0000E156E000E166E000E176E1200DC
:10275E001AC01BF01C6A1D6A19341B3601E31C805B
:10276E001B50236E2350D8A407D0000E156E000EFA
:10277E00166E000E176E120023507B0F1E2617C00A
:10278E0023F01A50231A800E2316168E198EFF0E62
:10279E001816FF0E1916000E1A16000E1F6E000EDA
:1027AE00206E000E216E070E226E15A006D0185058
:1027BE001F26195020221A502122D8901732163275
:1027CE001532D890183619361A36222EEED7090E33
:1027DE00226E15A006D018501F26195020221A500E
:1027EE002122D890173216321532D890213220324B
:1027FE001F32222EEED71FC001F020C002F021C0E2
:10280E0003F01EC004F023C005F088EC14F001C0E4
:10281E0015F002C016F003C017F0120026C02AF001
:10282E002B6A2C6A25342A3601E32B802A50316E0E
:10283E003150D8A407D0000E246E000E256E000E67
:10284E00266E120029C02AF02B6A2C6A28342A36EA
:10285E0001E32B802A50326E3250D8A407D0000EDE
:10286E00246E000E256E000E266E1200000E2E6EC9
:10287E00000E2F6E000E306E3250890F315E26C064
:10288E0032F02950321A800E3216258EFF0E241683
:10289E00FF0E2516000E2616288EFF0E2716FF0E8B
:1028AE002816000E2916180E2D6ED8902E362F369D
:1028BE0030362750245C2850255829502658D8A049
:1028CE0007D02750245E2850255A2950265A2E808C
:1028DE00D8902436253626362D2EE7D72EC001F079
:1028EE002FC002F030C003F031C004F032C005F04A
:1028FE0088EC14F001C024F002C025F003C026F0CD
:10290E0012000450D8B405D0015002100310D8A400
:10291E000CD0000E016E000E026E000E036E120041
:10292E00042AD890033202320132000E0114066ED0
:10293E00000E0214076EFE0E0314086E06500710EA
:10294E000810D8B40CD0ECD7042A010E0126000EC4
:10295E000222000E0322D890033202320132000E00
:10296E000114066E000E0214076EFF0E0314086E9D
:10297E00065007100810D8B406D0E6D70406D89033
:10298E0001360236033602BE03D0020E0460F6D7BD
:10299E0004A0029ED8900432045003120550D8A40D
:1029AE00038E01C001F002C002F003C003F012005A
:1029BE00C00E186E7F0E196E440E1A6E49C015F0B9
:1029CE004AC016F04BC017F09BEC13F015C024F064
:1029DE0016C025F017C026F0000E276EA00E286E2A
:1029EE00400E296E15EC14F024C04CF025C04DF0AD
:1029FE0026C04EF0000E316E000E326E3F0E336E5C
:102A0E004CC02EF04DC02FF04EC030F01EEC11F029
:102A1E002EC03AF02FC03BF030C03CF021EC13F04A
:102A2E003AC04FF03BC050F050BE07D0040E505C81
:102A3E00D8A003D0030E506E4F684FC001F050C0A7
:102A4E0002F0ACEC17F01200C00E186E7F0E196E6D
:102A5E00440E1A6E49C015F04AC016F04BC017F05E
:102A6E009BEC13F015C024F016C025F017C026F00D
:102A7E00000E276EA00E286E400E296E15EC14F077
:102A8E0024C04CF025C04DF026C04EF0000E316E25
:102A9E00000E326E3F0E336E4CC02EF04DC02FF036
:102AAE004EC030F01EEC11F02EC03AF02FC03BF0AD
:102ABE0030C03CF021EC13F03AC04FF03BC050F068
:102ACE0050BE07D0040E505CD8A003D0030E506E3B
:102ADE004F684FC001F050C002F0C3EC17F0120067
:102AEE0003AE16D001C007F002C008F003C009F013
:102AFE00071E081E091E072A000E08220922000EB4
:102B0E000724016E000E0820026E800E0920036E4F
:102B1E0006AE16D004C007F005C008F006C009F0D6
:102B2E00071E081E091E072A000E08220922000E83
:102B3E000724046E000E0820056E800E0920066E16
:102B4E00000E011A000E021A800E031A000E041A4D
:102B5E00000E051A800E061A0450015C055002582C
:102B6E0006500358D8B002D0D8901200D880120068
:102B7E00000E0C6E0AAE06D0096C0A1ED8B00A2AD8
:102B8E00010E0C6E08AE06D0076C081ED8B0082ACF
:102B9E00010E0C1A000E0E6E000E0D6E09500A106C
:102BAE00D8B41CD0010E0B6E04D0D89009360A365C
:102BBE000B2A0AAEFAD7D8900D360E360950075C9E
:102BCE000A500858D8A005D00950075E0A50085A76
:102BDE000D80D8900A3209320B2EEDD70C50D8B496
:102BEE0004D00D6C0E1ED8B00E2A0DC007F00EC00C
:102BFE0008F01200000E096E000E0A6E000E0B6E2B
:102C0E00000E0C6E0550061007100810D8B42AD00E
:102C1E00010E0D6E06D0D8900536063607360836EC
:102C2E000D2A08AEF8D7D89009360A360B360C3670
:102C3E000550015C065002580750035808500458BE
:102C4E00D8A009D00550015E0650025A0750035A0B
:102C5E000850045A0980D8900832073206320532DD
:102C6E000D2EE1D709C001F00AC002F00BC003F02F
:102C7E000CC004F01200000E066E02AE06D0016CFF
:102C8E00021ED8B0022A010E066E04AE04D0036CEA
:102C9E00041ED8B0042A03500410D8B418D0010E64
:102CAE00056E04D0D89003360436052A04AEFAD742
:102CBE000350015C04500258D8A004D00350015EAA
:102CCE000450025AD89004320332052EF1D7065022
:102CDE00D8B404D0016C021ED8B0022A01C001F093
:102CEE0002C002F012000550061007100810D8B4EA
:102CFE0024D0010E096E06D0D8900536063607365A
:102D0E000836092A08AEF8D70550015C065002585D
:102D1E000750035808500458D8A008D00550015E3B
:102D2E000650025A0750035A0850045AD8900832D7
:102D3E00073206320532092EE7D701C001F002C074
:102D4E0002F003C003F004C004F012008E0E116EE8
:102D5E0006D0D8900C320B320A320932112A000EEC
:102D6E0009140D6E000E0A140E6E000E0B140F6E6B
:102D7E00FF0E0C14106E0D500E100F101010D8A464
:102D8E00E8D709C001F00AC002F00BC003F011C071
:102D9E0004F0000E056E88EC14F001C009F002C0BC
:102DAE000AF003C00BF0120083928396190E79EC91
:102DBE0017F0010E0B6E030E0B6401D008D0030E3C
:102DCE0019EC18F0060E79EC17F00B2AF4D7020E58
:102DDE0019EC18F0000E0B6E030E0B6401D01200EE
:102DEE000B50010D710EF324D96E000EF420DA6E25
:102DFE00DF50096E000E93EC17F00B2AEDD715D0AD
:102E0E000FC0F6FF10C0F7FF000EF86E0F0EF7643E
:102E1E0003D00800F55005D0F6CFD9FFF7CFDAFF73
:102E2E00DF5031EC17F00F4A102A0FC0F6FF10C01A
:102E3E00F7FF000EF86E0F0EF76403D00800F55082
:102E4E0005D0F6CFD9FFF7CFDAFFDF500009D8B49F
:102E5E001200D6D70E6E1BD0010E096E000E93EC2B
:102E6E0017F0020E79EC17F01200020E0B6E010E27
:102E7E0050EC18F01200100E096E000E93EC17F0C5
:102E8E0012000EC009F0010E93EC17F012000E5056
:102E9E00080AD8B4F0D7020AD8B4E7D7060AD8B4CD
:102EAE00DBD7EFD73D503E103F10D8B406D0000E02
:102EBE003D1A000E3E1A800E3F1A3AC02EF03BC04D
:102ECE002FF03CC030F03DC031F03EC032F03FC07C
:102EDE0033F01EEC11F02EC03AF02FC03BF030C094
:102EEE003CF01200046E000E066E000E056E06D04B
:102EFE00FA0E0400E82EFDD7054A062A0450016E8C
:102F0E00026A0550015C0250800A036E0650800A68
:102F1E000358D8A01200ECD70A6E0AB002D08392E2
:102F2E0001D08382010EDAEC17F0010EDAEC17F005
:102F3E00839609380F0B19EC18F009500F0B19EC8A
:102F4E0018F0020E79EC17F0120001C003F002C067
:102F5E0004F0D89004320332D89004320332035076
:102F6E00BB6E01C003F0030E0316033ABA500318EA
:102F7E00CF0B0318BA6E120001C003F002C004F0AA
:102F8E00D89004320332D890043203320350BE6E0E
:102F9E0001C003F0030E0316033ABD500318CF0B06
:102FAE000318BD6E1200046E000E066E000E056E46
:102FBE0003D00400054A062A0450016E026A055029
:102FCE00015C0250800A036E0650800A0358D8A096
:102FDE001200EFD7140EF66E310EF76E000EF86E6D
:102FEE0000EE71F010EE04F00900F5CFEEFFE550A3
:102FFE00E150FAE1000EF86E000198EF0EF00F505E
:10300E001102F3CF13F0F4CF14F00F501202F3505D
:10301E00142610501102F350142613C00FF014C0D2
:10302E0010F01200086E08C007F0073A8350071818
:10303E000F0B0718836E010EDAEC17F08386050E60
:10304E000400E82EFDD783961200015002100310E3
:10305E00D8B406D0000E011A000E021A800E031A02
:10306E0001C001F002C002F003C003F0120009C05B
:10307E0001F00AC002F0036A8E0E046E000E056E99
:10308E0088EC14F001C009F002C00AF003C00BF086
:10309E0012000C6E0B04D8B402D0400E01D0000EFC
:1030AE000D6E0C040D260D508009096E000E93EC6A
:1030BE0017F01200036E000E026E3A0E036005D07A
:1030CE002F0E036402D0010E026E02C001F0013019
:1030DE001200000EC26E0C0EC16E9368BE0E946E80
:1030EE009268000E956E070E966EDBEC16F01200CF
:1030FE00CB68000ECA6E0C0EBD6E0C0EBA6ECA8474
:0A310E00949494921200280C01061C
:020000040020DA
:08000000FFFFFFFFFFFFFFFF00
:020000040030CA
:0E000000FF011F1FFF8385FF0FC00FE00F40A1
:00000001FF
